{
  "_format": "hh3-artifact-1",
  "contractName": "BlockRewardsMerkle",
  "sourceName": "contracts/BlockRewardsMerkle.sol",
  "abi": [
    {
      "inputs": [
        {
          "internalType": "address",
          "name": "initialOwner",
          "type": "address"
        },
        {
          "internalType": "address",
          "name": "usdc",
          "type": "address"
        },
        {
          "internalType": "address",
          "name": "_theBlockTreasury",
          "type": "address"
        }
      ],
      "stateMutability": "nonpayable",
      "type": "constructor"
    },
    {
      "inputs": [],
      "name": "AlreadyClaimed",
      "type": "error"
    },
    {
      "inputs": [],
      "name": "BadProof",
      "type": "error"
    },
    {
      "inputs": [],
      "name": "ClaimEnded",
      "type": "error"
    },
    {
      "inputs": [],
      "name": "NotEnded",
      "type": "error"
    },
    {
      "inputs": [
        {
          "internalType": "address",
          "name": "owner",
          "type": "address"
        }
      ],
      "name": "OwnableInvalidOwner",
      "type": "error"
    },
    {
      "inputs": [
        {
          "internalType": "address",
          "name": "account",
          "type": "address"
        }
      ],
      "name": "OwnableUnauthorizedAccount",
      "type": "error"
    },
    {
      "inputs": [
        {
          "internalType": "address",
          "name": "token",
          "type": "address"
        }
      ],
      "name": "SafeERC20FailedOperation",
      "type": "error"
    },
    {
      "anonymous": false,
      "inputs": [
        {
          "indexed": true,
          "internalType": "address",
          "name": "previousOwner",
          "type": "address"
        },
        {
          "indexed": true,
          "internalType": "address",
          "name": "newOwner",
          "type": "address"
        }
      ],
      "name": "OwnershipTransferStarted",
      "type": "event"
    },
    {
      "anonymous": false,
      "inputs": [
        {
          "indexed": true,
          "internalType": "address",
          "name": "previousOwner",
          "type": "address"
        },
        {
          "indexed": true,
          "internalType": "address",
          "name": "newOwner",
          "type": "address"
        }
      ],
      "name": "OwnershipTransferred",
      "type": "event"
    },
    {
      "inputs": [],
      "name": "USDC",
      "outputs": [
        {
          "internalType": "contract IERC20",
          "name": "",
          "type": "address"
        }
      ],
      "stateMutability": "view",
      "type": "function"
    },
    {
      "inputs": [],
      "name": "acceptOwnership",
      "outputs": [],
      "stateMutability": "nonpayable",
      "type": "function"
    },
    {
      "inputs": [
        {
          "internalType": "uint256",
          "name": "roundId",
          "type": "uint256"
        },
        {
          "internalType": "uint256",
          "name": "eligibleOzWei",
          "type": "uint256"
        },
        {
          "internalType": "uint256",
          "name": "payoutUsdc",
          "type": "uint256"
        },
        {
          "internalType": "bytes32[]",
          "name": "proof",
          "type": "bytes32[]"
        }
      ],
      "name": "claim",
      "outputs": [],
      "stateMutability": "nonpayable",
      "type": "function"
    },
    {
      "inputs": [
        {
          "internalType": "uint256",
          "name": "",
          "type": "uint256"
        },
        {
          "internalType": "address",
          "name": "",
          "type": "address"
        }
      ],
      "name": "claimed",
      "outputs": [
        {
          "internalType": "bool",
          "name": "",
          "type": "bool"
        }
      ],
      "stateMutability": "view",
      "type": "function"
    },
    {
      "inputs": [
        {
          "internalType": "bytes32",
          "name": "root",
          "type": "bytes32"
        },
        {
          "internalType": "uint64",
          "name": "claimEnd",
          "type": "uint64"
        },
        {
          "internalType": "uint256",
          "name": "poolUsdc",
          "type": "uint256"
        }
      ],
      "name": "createRound",
      "outputs": [
        {
          "internalType": "uint256",
          "name": "",
          "type": "uint256"
        }
      ],
      "stateMutability": "nonpayable",
      "type": "function"
    },
    {
      "inputs": [],
      "name": "owner",
      "outputs": [
        {
          "internalType": "address",
          "name": "",
          "type": "address"
        }
      ],
      "stateMutability": "view",
      "type": "function"
    },
    {
      "inputs": [],
      "name": "pendingOwner",
      "outputs": [
        {
          "internalType": "address",
          "name": "",
          "type": "address"
        }
      ],
      "stateMutability": "view",
      "type": "function"
    },
    {
      "inputs": [],
      "name": "renounceOwnership",
      "outputs": [],
      "stateMutability": "nonpayable",
      "type": "function"
    },
    {
      "inputs": [],
      "name": "roundCount",
      "outputs": [
        {
          "internalType": "uint256",
          "name": "",
          "type": "uint256"
        }
      ],
      "stateMutability": "view",
      "type": "function"
    },
    {
      "inputs": [
        {
          "internalType": "uint256",
          "name": "",
          "type": "uint256"
        }
      ],
      "name": "rounds",
      "outputs": [
        {
          "internalType": "bytes32",
          "name": "merkleRoot",
          "type": "bytes32"
        },
        {
          "internalType": "uint64",
          "name": "claimEnd",
          "type": "uint64"
        },
        {
          "internalType": "uint256",
          "name": "remainingUsdc",
          "type": "uint256"
        }
      ],
      "stateMutability": "view",
      "type": "function"
    },
    {
      "inputs": [
        {
          "internalType": "address",
          "name": "t",
          "type": "address"
        }
      ],
      "name": "setTheBlockTreasury",
      "outputs": [],
      "stateMutability": "nonpayable",
      "type": "function"
    },
    {
      "inputs": [
        {
          "internalType": "uint256",
          "name": "roundId",
          "type": "uint256"
        }
      ],
      "name": "sweepUnclaimed",
      "outputs": [],
      "stateMutability": "nonpayable",
      "type": "function"
    },
    {
      "inputs": [],
      "name": "theBlockTreasury",
      "outputs": [
        {
          "internalType": "address",
          "name": "",
          "type": "address"
        }
      ],
      "stateMutability": "view",
      "type": "function"
    },
    {
      "inputs": [
        {
          "internalType": "address",
          "name": "newOwner",
          "type": "address"
        }
      ],
      "name": "transferOwnership",
      "outputs": [],
      "stateMutability": "nonpayable",
      "type": "function"
    }
  ],
  "bytecode": "0x60a060405234801561000f575f5ffd5b5060405161179738038061179783398181016040528101906100319190610283565b825f73ffffffffffffffffffffffffffffffffffffffff168173ffffffffffffffffffffffffffffffffffffffff16036100a2575f6040517f1e4fbdf700000000000000000000000000000000000000000000000000000000815260040161009991906102e2565b60405180910390fd5b6100b18161012e60201b60201c565b508173ffffffffffffffffffffffffffffffffffffffff1660808173ffffffffffffffffffffffffffffffffffffffff16815250508060025f6101000a81548173ffffffffffffffffffffffffffffffffffffffff021916908373ffffffffffffffffffffffffffffffffffffffff1602179055505050506102fb565b60015f6101000a81549073ffffffffffffffffffffffffffffffffffffffff02191690556101618161016460201b60201c565b50565b5f5f5f9054906101000a900473ffffffffffffffffffffffffffffffffffffffff169050815f5f6101000a81548173ffffffffffffffffffffffffffffffffffffffff021916908373ffffffffffffffffffffffffffffffffffffffff1602179055508173ffffffffffffffffffffffffffffffffffffffff168173ffffffffffffffffffffffffffffffffffffffff167f8be0079c531659141344cd1fd0a4f28419497f9722a3daafe3b4186f6b6457e060405160405180910390a35050565b5f5ffd5b5f73ffffffffffffffffffffffffffffffffffffffff82169050919050565b5f61025282610229565b9050919050565b61026281610248565b811461026c575f5ffd5b50565b5f8151905061027d81610259565b92915050565b5f5f5f6060848603121561029a57610299610225565b5b5f6102a78682870161026f565b93505060206102b88682870161026f565b92505060406102c98682870161026f565b9150509250925092565b6102dc81610248565b82525050565b5f6020820190506102f55f8301846102d3565b92915050565b60805161146f6103285f395f81816103670152818161055f015281816106b80152610937015261146f5ff3fe608060405234801561000f575f5ffd5b50600436106100e8575f3560e01c806389a302711161008a578063e30c397811610064578063e30c397814610226578063e50e64d514610244578063ea25e17614610260578063f2fde38b1461027c576100e8565b806389a30271146101b85780638c65c81f146101d65780638da5cb5b14610208576100e8565b8063654bbed3116100c6578063654bbed31461016a578063715018a61461018657806379ba5097146101905780637a42a6141461019a576100e8565b8063120aa877146100ec578063127f0b3f1461011c57806360425c061461013a575b5f5ffd5b61010660048036038101906101019190610e85565b610298565b6040516101139190610edd565b60405180910390f35b6101246102c2565b6040516101319190610f05565b60405180910390f35b610154600480360381019061014f9190610f8e565b6102c8565b6040516101619190610f05565b60405180910390f35b610184600480360381019061017f9190610fde565b61044c565b005b61018e610497565b005b6101986104aa565b005b6101a2610538565b6040516101af9190611018565b60405180910390f35b6101c061055d565b6040516101cd919061108c565b60405180910390f35b6101f060048036038101906101eb91906110a5565b610581565b6040516101ff939291906110ee565b60405180910390f35b6102106105ba565b60405161021d9190611018565b60405180910390f35b61022e6105e1565b60405161023b9190611018565b60405180910390f35b61025e600480360381019061025991906110a5565b610609565b005b61027a60048036038101906102759190611184565b610701565b005b61029660048036038101906102919190610fde565b610984565b005b6005602052815f5260405f20602052805f5260405f205f915091509054906101000a900460ff1681565b60035481565b5f6102d1610a30565b428367ffffffffffffffff161161031d576040517f08c379a000000000000000000000000000000000000000000000000000000000815260040161031490611262565b60405180910390fd5b5f821161035f576040517f08c379a0000000000000000000000000000000000000000000000000000000008152600401610356906112ca565b60405180910390fd5b6103ac3330847f000000000000000000000000000000000000000000000000000000000000000073ffffffffffffffffffffffffffffffffffffffff16610ab7909392919063ffffffff16565b600160035f8282546103be9190611315565b9250508190555060405180606001604052808581526020018467ffffffffffffffff1681526020018381525060045f60035481526020019081526020015f205f820151815f01556020820151816001015f6101000a81548167ffffffffffffffff021916908367ffffffffffffffff1602179055506040820151816002015590505060035490509392505050565b610454610a30565b8060025f6101000a81548173ffffffffffffffffffffffffffffffffffffffff021916908373ffffffffffffffffffffffffffffffffffffffff16021790555050565b61049f610a30565b6104a85f610b39565b565b5f6104b3610b69565b90508073ffffffffffffffffffffffffffffffffffffffff166104d46105e1565b73ffffffffffffffffffffffffffffffffffffffff161461052c57806040517f118cdaa70000000000000000000000000000000000000000000000000000000081526004016105239190611018565b60405180910390fd5b61053581610b39565b50565b60025f9054906101000a900473ffffffffffffffffffffffffffffffffffffffff1681565b7f000000000000000000000000000000000000000000000000000000000000000081565b6004602052805f5260405f205f91509050805f015490806001015f9054906101000a900467ffffffffffffffff16908060020154905083565b5f5f5f9054906101000a900473ffffffffffffffffffffffffffffffffffffffff16905090565b5f60015f9054906101000a900473ffffffffffffffffffffffffffffffffffffffff16905090565b610611610a30565b5f60045f8381526020019081526020015f209050806001015f9054906101000a900467ffffffffffffffff1667ffffffffffffffff16421161067f576040517fd3018d1800000000000000000000000000000000000000000000000000000000815260040160405180910390fd5b5f816002015490505f82600201819055506106fc60025f9054906101000a900473ffffffffffffffffffffffffffffffffffffffff16827f000000000000000000000000000000000000000000000000000000000000000073ffffffffffffffffffffffffffffffffffffffff16610b709092919063ffffffff16565b505050565b5f60045f8781526020019081526020015f209050806001015f9054906101000a900467ffffffffffffffff1667ffffffffffffffff16421115610770576040517f4f184b7e00000000000000000000000000000000000000000000000000000000815260040160405180910390fd5b60055f8781526020019081526020015f205f3373ffffffffffffffffffffffffffffffffffffffff1673ffffffffffffffffffffffffffffffffffffffff1681526020019081526020015f205f9054906101000a900460ff1615610800576040517f646cf55800000000000000000000000000000000000000000000000000000000815260040160405180910390fd5b5f33868660405160200161081693929190611348565b60405160208183030381529060405280519060200120905061087c8484808060200260200160405190810160405280939291908181526020018383602002808284375f81840152601f19601f82011690508083019250505050505050835f015483610bef565b6108b2576040517f7ca55c7700000000000000000000000000000000000000000000000000000000815260040160405180910390fd5b600160055f8981526020019081526020015f205f3373ffffffffffffffffffffffffffffffffffffffff1673ffffffffffffffffffffffffffffffffffffffff1681526020019081526020015f205f6101000a81548160ff02191690831515021790555084826002015f828254610929919061137d565b9250508190555061097b33867f000000000000000000000000000000000000000000000000000000000000000073ffffffffffffffffffffffffffffffffffffffff16610b709092919063ffffffff16565b50505050505050565b61098c610a30565b8060015f6101000a81548173ffffffffffffffffffffffffffffffffffffffff021916908373ffffffffffffffffffffffffffffffffffffffff1602179055508073ffffffffffffffffffffffffffffffffffffffff166109eb6105ba565b73ffffffffffffffffffffffffffffffffffffffff167f38d16b8cac22d99fc7c124b9cd0de2d3fa1faef420bfe791d8c362d765e2270060405160405180910390a350565b610a38610b69565b73ffffffffffffffffffffffffffffffffffffffff16610a566105ba565b73ffffffffffffffffffffffffffffffffffffffff1614610ab557610a79610b69565b6040517f118cdaa7000000000000000000000000000000000000000000000000000000008152600401610aac9190611018565b60405180910390fd5b565b610b33848573ffffffffffffffffffffffffffffffffffffffff166323b872dd868686604051602401610aec939291906113b0565b604051602081830303815290604052915060e01b6020820180517bffffffffffffffffffffffffffffffffffffffffffffffffffffffff8381831617835250505050610c05565b50505050565b60015f6101000a81549073ffffffffffffffffffffffffffffffffffffffff0219169055610b6681610ca0565b50565b5f33905090565b610bea838473ffffffffffffffffffffffffffffffffffffffff1663a9059cbb8585604051602401610ba39291906113e5565b604051602081830303815290604052915060e01b6020820180517bffffffffffffffffffffffffffffffffffffffffffffffffffffffff8381831617835250505050610c05565b505050565b5f82610bfb8584610d61565b1490509392505050565b5f5f60205f8451602086015f885af180610c24576040513d5f823e3d81fd5b3d92505f519150505f8214610c3d576001811415610c58565b5f8473ffffffffffffffffffffffffffffffffffffffff163b145b15610c9a57836040517f5274afe7000000000000000000000000000000000000000000000000000000008152600401610c919190611018565b60405180910390fd5b50505050565b5f5f5f9054906101000a900473ffffffffffffffffffffffffffffffffffffffff169050815f5f6101000a81548173ffffffffffffffffffffffffffffffffffffffff021916908373ffffffffffffffffffffffffffffffffffffffff1602179055508173ffffffffffffffffffffffffffffffffffffffff168173ffffffffffffffffffffffffffffffffffffffff167f8be0079c531659141344cd1fd0a4f28419497f9722a3daafe3b4186f6b6457e060405160405180910390a35050565b5f5f8290505f5f90505b8451811015610da757610d9882868381518110610d8b57610d8a61140c565b5b6020026020010151610db2565b91508080600101915050610d6b565b508091505092915050565b5f818310610dc957610dc48284610ddc565b610dd4565b610dd38383610ddc565b5b905092915050565b5f825f528160205260405f20905092915050565b5f5ffd5b5f5ffd5b5f819050919050565b610e0a81610df8565b8114610e14575f5ffd5b50565b5f81359050610e2581610e01565b92915050565b5f73ffffffffffffffffffffffffffffffffffffffff82169050919050565b5f610e5482610e2b565b9050919050565b610e6481610e4a565b8114610e6e575f5ffd5b50565b5f81359050610e7f81610e5b565b92915050565b5f5f60408385031215610e9b57610e9a610df0565b5b5f610ea885828601610e17565b9250506020610eb985828601610e71565b9150509250929050565b5f8115159050919050565b610ed781610ec3565b82525050565b5f602082019050610ef05f830184610ece565b92915050565b610eff81610df8565b82525050565b5f602082019050610f185f830184610ef6565b92915050565b5f819050919050565b610f3081610f1e565b8114610f3a575f5ffd5b50565b5f81359050610f4b81610f27565b92915050565b5f67ffffffffffffffff82169050919050565b610f6d81610f51565b8114610f77575f5ffd5b50565b5f81359050610f8881610f64565b92915050565b5f5f5f60608486031215610fa557610fa4610df0565b5b5f610fb286828701610f3d565b9350506020610fc386828701610f7a565b9250506040610fd486828701610e17565b9150509250925092565b5f60208284031215610ff357610ff2610df0565b5b5f61100084828501610e71565b91505092915050565b61101281610e4a565b82525050565b5f60208201905061102b5f830184611009565b92915050565b5f819050919050565b5f61105461104f61104a84610e2b565b611031565b610e2b565b9050919050565b5f6110658261103a565b9050919050565b5f6110768261105b565b9050919050565b6110868161106c565b82525050565b5f60208201905061109f5f83018461107d565b92915050565b5f602082840312156110ba576110b9610df0565b5b5f6110c784828501610e17565b91505092915050565b6110d981610f1e565b82525050565b6110e881610f51565b82525050565b5f6060820190506111015f8301866110d0565b61110e60208301856110df565b61111b6040830184610ef6565b949350505050565b5f5ffd5b5f5ffd5b5f5ffd5b5f5f83601f84011261114457611143611123565b5b8235905067ffffffffffffffff81111561116157611160611127565b5b60208301915083602082028301111561117d5761117c61112b565b5b9250929050565b5f5f5f5f5f6080868803121561119d5761119c610df0565b5b5f6111aa88828901610e17565b95505060206111bb88828901610e17565b94505060406111cc88828901610e17565b935050606086013567ffffffffffffffff8111156111ed576111ec610df4565b5b6111f98882890161112f565b92509250509295509295909350565b5f82825260208201905092915050565b7f62616420656e64000000000000000000000000000000000000000000000000005f82015250565b5f61124c600783611208565b915061125782611218565b602082019050919050565b5f6020820190508181035f83015261127981611240565b9050919050565b7f706f6f6c203000000000000000000000000000000000000000000000000000005f82015250565b5f6112b4600683611208565b91506112bf82611280565b602082019050919050565b5f6020820190508181035f8301526112e1816112a8565b9050919050565b7f4e487b71000000000000000000000000000000000000000000000000000000005f52601160045260245ffd5b5f61131f82610df8565b915061132a83610df8565b9250828201905080821115611342576113416112e8565b5b92915050565b5f60608201905061135b5f830186611009565b6113686020830185610ef6565b6113756040830184610ef6565b949350505050565b5f61138782610df8565b915061139283610df8565b92508282039050818111156113aa576113a96112e8565b5b92915050565b5f6060820190506113c35f830186611009565b6113d06020830185611009565b6113dd6040830184610ef6565b949350505050565b5f6040820190506113f85f830185611009565b6114056020830184610ef6565b9392505050565b7f4e487b71000000000000000000000000000000000000000000000000000000005f52603260045260245ffdfea264697066735822122004e6d3b8c2581e5660716cbd2bc9759759add16bae8831f10f20b8d67106ad4664736f6c634300081c0033",
  "linkReferences": {},
  "deployedLinkReferences": {},
  "immutableReferences": {
    "2713": [
      {
        "length": 32,
        "start": 871
      },
      {
        "length": 32,
        "start": 1375
      },
      {
        "length": 32,
        "start": 1720
      },
      {
        "length": 32,
        "start": 2359
      }
    ]
  },
  "inputSourceName": "project/contracts/BlockRewardsMerkle.sol",
  "buildInfoId": "solc-0_8_28-1619093ae69e5706fe5c34070246968e2c26cb49"
}