{
  "_format": "hh3-artifact-1",
  "contractName": "BlockSwap",
  "sourceName": "contracts/BlockSwap.sol",
  "abi": [
    {
      "inputs": [
        {
          "internalType": "address",
          "name": "initialOwner",
          "type": "address"
        },
        {
          "internalType": "address",
          "name": "ozToken",
          "type": "address"
        },
        {
          "internalType": "address",
          "name": "usdcToken",
          "type": "address"
        },
        {
          "internalType": "address",
          "name": "treasury_",
          "type": "address"
        },
        {
          "internalType": "address",
          "name": "relayer_",
          "type": "address"
        },
        {
          "internalType": "uint256",
          "name": "sellPerBrick_",
          "type": "uint256"
        },
        {
          "internalType": "uint256",
          "name": "floorPerBrick_",
          "type": "uint256"
        }
      ],
      "stateMutability": "nonpayable",
      "type": "constructor"
    },
    {
      "inputs": [],
      "name": "BadConfig",
      "type": "error"
    },
    {
      "inputs": [],
      "name": "BadSig",
      "type": "error"
    },
    {
      "inputs": [],
      "name": "BuyPaused",
      "type": "error"
    },
    {
      "inputs": [],
      "name": "ECDSAInvalidSignature",
      "type": "error"
    },
    {
      "inputs": [
        {
          "internalType": "uint256",
          "name": "length",
          "type": "uint256"
        }
      ],
      "name": "ECDSAInvalidSignatureLength",
      "type": "error"
    },
    {
      "inputs": [
        {
          "internalType": "bytes32",
          "name": "s",
          "type": "bytes32"
        }
      ],
      "name": "ECDSAInvalidSignatureS",
      "type": "error"
    },
    {
      "inputs": [],
      "name": "Expired",
      "type": "error"
    },
    {
      "inputs": [],
      "name": "InvalidAmount",
      "type": "error"
    },
    {
      "inputs": [],
      "name": "LiabilityUnderflow",
      "type": "error"
    },
    {
      "inputs": [],
      "name": "NotEnoughInventory",
      "type": "error"
    },
    {
      "inputs": [],
      "name": "NotRelayer",
      "type": "error"
    },
    {
      "inputs": [
        {
          "internalType": "address",
          "name": "owner",
          "type": "address"
        }
      ],
      "name": "OwnableInvalidOwner",
      "type": "error"
    },
    {
      "inputs": [
        {
          "internalType": "address",
          "name": "account",
          "type": "address"
        }
      ],
      "name": "OwnableUnauthorizedAccount",
      "type": "error"
    },
    {
      "inputs": [],
      "name": "ReentrancyGuardReentrantCall",
      "type": "error"
    },
    {
      "inputs": [
        {
          "internalType": "address",
          "name": "token",
          "type": "address"
        }
      ],
      "name": "SafeERC20FailedOperation",
      "type": "error"
    },
    {
      "inputs": [],
      "name": "VaultTooLow",
      "type": "error"
    },
    {
      "inputs": [],
      "name": "ZeroBuyer",
      "type": "error"
    },
    {
      "anonymous": false,
      "inputs": [
        {
          "indexed": true,
          "internalType": "address",
          "name": "buyer",
          "type": "address"
        },
        {
          "indexed": false,
          "internalType": "uint256",
          "name": "ozWei",
          "type": "uint256"
        },
        {
          "indexed": false,
          "internalType": "uint256",
          "name": "usdcTotal",
          "type": "uint256"
        },
        {
          "indexed": false,
          "internalType": "uint256",
          "name": "usdcToVault",
          "type": "uint256"
        },
        {
          "indexed": false,
          "internalType": "uint256",
          "name": "usdcToTreasury",
          "type": "uint256"
        }
      ],
      "name": "Bought",
      "type": "event"
    },
    {
      "anonymous": false,
      "inputs": [
        {
          "indexed": false,
          "internalType": "bool",
          "name": "paused",
          "type": "bool"
        }
      ],
      "name": "BuyPausedSet",
      "type": "event"
    },
    {
      "anonymous": false,
      "inputs": [
        {
          "indexed": false,
          "internalType": "uint256",
          "name": "newLiabilityUSDC",
          "type": "uint256"
        }
      ],
      "name": "LiabilityUpdated",
      "type": "event"
    },
    {
      "anonymous": false,
      "inputs": [
        {
          "indexed": true,
          "internalType": "address",
          "name": "previousOwner",
          "type": "address"
        },
        {
          "indexed": true,
          "internalType": "address",
          "name": "newOwner",
          "type": "address"
        }
      ],
      "name": "OwnershipTransferStarted",
      "type": "event"
    },
    {
      "anonymous": false,
      "inputs": [
        {
          "indexed": true,
          "internalType": "address",
          "name": "previousOwner",
          "type": "address"
        },
        {
          "indexed": true,
          "internalType": "address",
          "name": "newOwner",
          "type": "address"
        }
      ],
      "name": "OwnershipTransferred",
      "type": "event"
    },
    {
      "anonymous": false,
      "inputs": [
        {
          "indexed": false,
          "internalType": "uint256",
          "name": "sellPerBrick",
          "type": "uint256"
        },
        {
          "indexed": false,
          "internalType": "uint256",
          "name": "floorPerBrick",
          "type": "uint256"
        }
      ],
      "name": "PricesSet",
      "type": "event"
    },
    {
      "anonymous": false,
      "inputs": [
        {
          "indexed": true,
          "internalType": "address",
          "name": "relayer",
          "type": "address"
        }
      ],
      "name": "RelayerSet",
      "type": "event"
    },
    {
      "anonymous": false,
      "inputs": [
        {
          "indexed": true,
          "internalType": "address",
          "name": "seller",
          "type": "address"
        },
        {
          "indexed": false,
          "internalType": "uint256",
          "name": "ozWei",
          "type": "uint256"
        },
        {
          "indexed": false,
          "internalType": "uint256",
          "name": "usdcPaid",
          "type": "uint256"
        }
      ],
      "name": "SoldBack",
      "type": "event"
    },
    {
      "anonymous": false,
      "inputs": [
        {
          "indexed": true,
          "internalType": "address",
          "name": "treasury",
          "type": "address"
        }
      ],
      "name": "TreasurySet",
      "type": "event"
    },
    {
      "inputs": [],
      "name": "OUNCES_PER_BRICK",
      "outputs": [
        {
          "internalType": "uint256",
          "name": "",
          "type": "uint256"
        }
      ],
      "stateMutability": "view",
      "type": "function"
    },
    {
      "inputs": [],
      "name": "OZ",
      "outputs": [
        {
          "internalType": "contract IERC20",
          "name": "",
          "type": "address"
        }
      ],
      "stateMutability": "view",
      "type": "function"
    },
    {
      "inputs": [],
      "name": "OZ_WEI",
      "outputs": [
        {
          "internalType": "uint256",
          "name": "",
          "type": "uint256"
        }
      ],
      "stateMutability": "view",
      "type": "function"
    },
    {
      "inputs": [],
      "name": "USDC",
      "outputs": [
        {
          "internalType": "contract IERC20",
          "name": "",
          "type": "address"
        }
      ],
      "stateMutability": "view",
      "type": "function"
    },
    {
      "inputs": [],
      "name": "__version",
      "outputs": [
        {
          "internalType": "string",
          "name": "",
          "type": "string"
        }
      ],
      "stateMutability": "pure",
      "type": "function"
    },
    {
      "inputs": [],
      "name": "acceptOwnership",
      "outputs": [],
      "stateMutability": "nonpayable",
      "type": "function"
    },
    {
      "inputs": [
        {
          "internalType": "uint256",
          "name": "ozWei",
          "type": "uint256"
        }
      ],
      "name": "buyOz",
      "outputs": [],
      "stateMutability": "nonpayable",
      "type": "function"
    },
    {
      "inputs": [
        {
          "internalType": "address",
          "name": "buyer",
          "type": "address"
        },
        {
          "internalType": "uint256",
          "name": "ozWei",
          "type": "uint256"
        },
        {
          "internalType": "uint256",
          "name": "deadline",
          "type": "uint256"
        },
        {
          "internalType": "uint8",
          "name": "v",
          "type": "uint8"
        },
        {
          "internalType": "bytes32",
          "name": "r",
          "type": "bytes32"
        },
        {
          "internalType": "bytes32",
          "name": "s",
          "type": "bytes32"
        }
      ],
      "name": "buyOzRelayed",
      "outputs": [],
      "stateMutability": "nonpayable",
      "type": "function"
    },
    {
      "inputs": [
        {
          "internalType": "address",
          "name": "buyer",
          "type": "address"
        },
        {
          "internalType": "uint256",
          "name": "ozWei",
          "type": "uint256"
        },
        {
          "components": [
            {
              "internalType": "uint256",
              "name": "deadline",
              "type": "uint256"
            },
            {
              "internalType": "uint8",
              "name": "v",
              "type": "uint8"
            },
            {
              "internalType": "bytes32",
              "name": "r",
              "type": "bytes32"
            },
            {
              "internalType": "bytes32",
              "name": "s",
              "type": "bytes32"
            }
          ],
          "internalType": "struct BlockSwap.BuySig",
          "name": "buySig",
          "type": "tuple"
        },
        {
          "components": [
            {
              "internalType": "uint256",
              "name": "value",
              "type": "uint256"
            },
            {
              "internalType": "uint256",
              "name": "deadline",
              "type": "uint256"
            },
            {
              "internalType": "uint8",
              "name": "v",
              "type": "uint8"
            },
            {
              "internalType": "bytes32",
              "name": "r",
              "type": "bytes32"
            },
            {
              "internalType": "bytes32",
              "name": "s",
              "type": "bytes32"
            }
          ],
          "internalType": "struct BlockSwap.PermitSig",
          "name": "permitSig",
          "type": "tuple"
        }
      ],
      "name": "buyOzRelayedWithPermit",
      "outputs": [],
      "stateMutability": "nonpayable",
      "type": "function"
    },
    {
      "inputs": [],
      "name": "buyPaused",
      "outputs": [
        {
          "internalType": "bool",
          "name": "",
          "type": "bool"
        }
      ],
      "stateMutability": "view",
      "type": "function"
    },
    {
      "inputs": [],
      "name": "buybackFloorPerBrick",
      "outputs": [
        {
          "internalType": "uint256",
          "name": "",
          "type": "uint256"
        }
      ],
      "stateMutability": "view",
      "type": "function"
    },
    {
      "inputs": [],
      "name": "buybackVault",
      "outputs": [
        {
          "internalType": "address",
          "name": "",
          "type": "address"
        }
      ],
      "stateMutability": "view",
      "type": "function"
    },
    {
      "inputs": [],
      "name": "coverageUSDC",
      "outputs": [
        {
          "internalType": "uint256",
          "name": "",
          "type": "uint256"
        }
      ],
      "stateMutability": "view",
      "type": "function"
    },
    {
      "inputs": [],
      "name": "floorLiabilityUSDC",
      "outputs": [
        {
          "internalType": "uint256",
          "name": "",
          "type": "uint256"
        }
      ],
      "stateMutability": "view",
      "type": "function"
    },
    {
      "inputs": [],
      "name": "isSolvent",
      "outputs": [
        {
          "internalType": "bool",
          "name": "",
          "type": "bool"
        }
      ],
      "stateMutability": "view",
      "type": "function"
    },
    {
      "inputs": [
        {
          "internalType": "address",
          "name": "",
          "type": "address"
        }
      ],
      "name": "nonces",
      "outputs": [
        {
          "internalType": "uint256",
          "name": "",
          "type": "uint256"
        }
      ],
      "stateMutability": "view",
      "type": "function"
    },
    {
      "inputs": [],
      "name": "owner",
      "outputs": [
        {
          "internalType": "address",
          "name": "",
          "type": "address"
        }
      ],
      "stateMutability": "view",
      "type": "function"
    },
    {
      "inputs": [],
      "name": "pendingOwner",
      "outputs": [
        {
          "internalType": "address",
          "name": "",
          "type": "address"
        }
      ],
      "stateMutability": "view",
      "type": "function"
    },
    {
      "inputs": [],
      "name": "relayer",
      "outputs": [
        {
          "internalType": "address",
          "name": "",
          "type": "address"
        }
      ],
      "stateMutability": "view",
      "type": "function"
    },
    {
      "inputs": [],
      "name": "renounceOwnership",
      "outputs": [],
      "stateMutability": "nonpayable",
      "type": "function"
    },
    {
      "inputs": [
        {
          "internalType": "uint256",
          "name": "ozWei",
          "type": "uint256"
        }
      ],
      "name": "sellBackOz",
      "outputs": [],
      "stateMutability": "nonpayable",
      "type": "function"
    },
    {
      "inputs": [],
      "name": "sellPricePerBrick",
      "outputs": [
        {
          "internalType": "uint256",
          "name": "",
          "type": "uint256"
        }
      ],
      "stateMutability": "view",
      "type": "function"
    },
    {
      "inputs": [
        {
          "internalType": "bool",
          "name": "paused",
          "type": "bool"
        }
      ],
      "name": "setBuyPaused",
      "outputs": [],
      "stateMutability": "nonpayable",
      "type": "function"
    },
    {
      "inputs": [
        {
          "internalType": "uint256",
          "name": "nextSellPerBrick",
          "type": "uint256"
        },
        {
          "internalType": "uint256",
          "name": "nextFloorPerBrick",
          "type": "uint256"
        }
      ],
      "name": "setPrices",
      "outputs": [],
      "stateMutability": "nonpayable",
      "type": "function"
    },
    {
      "inputs": [
        {
          "internalType": "address",
          "name": "relayer_",
          "type": "address"
        }
      ],
      "name": "setRelayer",
      "outputs": [],
      "stateMutability": "nonpayable",
      "type": "function"
    },
    {
      "inputs": [
        {
          "internalType": "address",
          "name": "treasury_",
          "type": "address"
        }
      ],
      "name": "setTreasury",
      "outputs": [],
      "stateMutability": "nonpayable",
      "type": "function"
    },
    {
      "inputs": [],
      "name": "theBlockTreasury",
      "outputs": [
        {
          "internalType": "address",
          "name": "",
          "type": "address"
        }
      ],
      "stateMutability": "view",
      "type": "function"
    },
    {
      "inputs": [
        {
          "internalType": "address",
          "name": "newOwner",
          "type": "address"
        }
      ],
      "name": "transferOwnership",
      "outputs": [],
      "stateMutability": "nonpayable",
      "type": "function"
    },
    {
      "inputs": [],
      "name": "vaultUSDC",
      "outputs": [
        {
          "internalType": "uint256",
          "name": "",
          "type": "uint256"
        }
      ],
      "stateMutability": "view",
      "type": "function"
    }
  ],
  "bytecode": "0x60c060405234801561000f575f5ffd5b50604051613030380380613030833981810160405281019061003191906105f0565b865f73ffffffffffffffffffffffffffffffffffffffff168173ffffffffffffffffffffffffffffffffffffffff16036100a2575f6040517f1e4fbdf7000000000000000000000000000000000000000000000000000000008152600401610099919061069c565b60405180910390fd5b6100b18161046860201b60201c565b5060016002819055505f73ffffffffffffffffffffffffffffffffffffffff168673ffffffffffffffffffffffffffffffffffffffff16148061011f57505f73ffffffffffffffffffffffffffffffffffffffff168573ffffffffffffffffffffffffffffffffffffffff16145b15610156576040517f07cc321c00000000000000000000000000000000000000000000000000000000815260040160405180910390fd5b5f73ffffffffffffffffffffffffffffffffffffffff168473ffffffffffffffffffffffffffffffffffffffff1614806101bb57505f73ffffffffffffffffffffffffffffffffffffffff168373ffffffffffffffffffffffffffffffffffffffff16145b156101f2576040517f07cc321c00000000000000000000000000000000000000000000000000000000815260040160405180910390fd5b5f8214806101ff57505f81145b15610236576040517f07cc321c00000000000000000000000000000000000000000000000000000000815260040160405180910390fd5b80821015610270576040517f07cc321c00000000000000000000000000000000000000000000000000000000815260040160405180910390fd5b8573ffffffffffffffffffffffffffffffffffffffff1660808173ffffffffffffffffffffffffffffffffffffffff16815250508473ffffffffffffffffffffffffffffffffffffffff1660a08173ffffffffffffffffffffffffffffffffffffffff16815250508360035f6101000a81548173ffffffffffffffffffffffffffffffffffffffff021916908373ffffffffffffffffffffffffffffffffffffffff1602179055508260045f6101000a81548173ffffffffffffffffffffffffffffffffffffffff021916908373ffffffffffffffffffffffffffffffffffffffff16021790555081600581905550806006819055508373ffffffffffffffffffffffffffffffffffffffff167f3c864541ef71378c6229510ed90f376565ee42d9c5e0904a984a9e863e6db44f60405160405180910390a28273ffffffffffffffffffffffffffffffffffffffff167fb7041340e0c2a075059bf0488a71c767724be15dae8e737f8460007325e8d85760405160405180910390a27f31f6589b7ed64ef274aa57030a506aa0b3e96b9c8c313fc8407f7253ab832d57828260405161041d9291906106c4565b60405180910390a17f29f588e2fe165433647ccbcd280f8c2d553643b5492a88904dd94f2a8f0e74045f6040516104549190610705565b60405180910390a15050505050505061071e565b60015f6101000a81549073ffffffffffffffffffffffffffffffffffffffff021916905561049b8161049e60201b60201c565b50565b5f5f5f9054906101000a900473ffffffffffffffffffffffffffffffffffffffff169050815f5f6101000a81548173ffffffffffffffffffffffffffffffffffffffff021916908373ffffffffffffffffffffffffffffffffffffffff1602179055508173ffffffffffffffffffffffffffffffffffffffff168173ffffffffffffffffffffffffffffffffffffffff167f8be0079c531659141344cd1fd0a4f28419497f9722a3daafe3b4186f6b6457e060405160405180910390a35050565b5f5ffd5b5f73ffffffffffffffffffffffffffffffffffffffff82169050919050565b5f61058c82610563565b9050919050565b61059c81610582565b81146105a6575f5ffd5b50565b5f815190506105b781610593565b92915050565b5f819050919050565b6105cf816105bd565b81146105d9575f5ffd5b50565b5f815190506105ea816105c6565b92915050565b5f5f5f5f5f5f5f60e0888a03121561060b5761060a61055f565b5b5f6106188a828b016105a9565b97505060206106298a828b016105a9565b965050604061063a8a828b016105a9565b955050606061064b8a828b016105a9565b945050608061065c8a828b016105a9565b93505060a061066d8a828b016105dc565b92505060c061067e8a828b016105dc565b91505092959891949750929550565b61069681610582565b82525050565b5f6020820190506106af5f83018461068d565b92915050565b6106be816105bd565b82525050565b5f6040820190506106d75f8301856106b5565b6106e460208301846106b5565b9392505050565b5f8115159050919050565b6106ff816106eb565b82525050565b5f6020820190506107185f8301846106f6565b92915050565b60805160a0516128b261077e5f395f8181610a9c01528181610bc501528181610d3c01528181611091015281816110b601528181611654015261171c01525f8181610c9f01528181610ddf01528181611537015261176901526128b25ff3fe608060405234801561000f575f5ffd5b50600436106101cd575f3560e01c80637a42a614116101025780638da5cb5b116100a0578063f1f5c9931161006f578063f1f5c9931461049b578063f2fde38b146104b9578063f43b78ff146104d5578063ff3023e7146104f3576101cd565b80638da5cb5b146104255780639a70020c14610443578063e30c397814610461578063f0f442601461047f576101cd565b80638406c079116100dc5780638406c079146103af5780638958895b146103cd57806389a30271146103e95780638a8f773f14610407576101cd565b80637a42a614146103435780637be9af7e146103615780637ecebe001461037f576101cd565b80635ce239501161016f578063642f10df11610149578063642f10df146102f55780636548e9bc14610313578063715018a61461032f57806379ba509714610339576101cd565b80635ce239501461029b578063615656be146102b9578063642683c0146102d7576101cd565b806325375e22116101ab57806325375e22146102275780633055d1ab1461024357806341c8bcc31461025f578063451b4dda1461027d576101cd565b8063059de7db146101d157806305fefda7146101ef5780631ae445781461020b575b5f5ffd5b6101d961050f565b6040516101e69190611fb0565b60405180910390f35b61020960048036038101906102049190611ff7565b610514565b005b610225600480360381019061022091906120f8565b61065d565b005b610241600480360381019061023c91906121c1565b61090d565b005b61025d60048036038101906102589190612226565b610b66565b005b610267610ddd565b60405161027491906122ac565b60405180910390f35b610285610e01565b6040516102929190612335565b60405180910390f35b6102a3610e21565b6040516102b0919061236f565b60405180910390f35b6102c1610e34565b6040516102ce9190611fb0565b60405180910390f35b6102df610e67565b6040516102ec9190611fb0565b60405180910390f35b6102fd610e6d565b60405161030a9190611fb0565b60405180910390f35b61032d60048036038101906103289190612388565b610e79565b005b610337610f6c565b005b610341610f7f565b005b61034b61100d565b60405161035891906123c2565b60405180910390f35b610369611032565b6040516103769190611fb0565b60405180910390f35b61039960048036038101906103949190612388565b611038565b6040516103a69190611fb0565b60405180910390f35b6103b761104d565b6040516103c491906123c2565b60405180910390f35b6103e760048036038101906103e29190612226565b611072565b005b6103f161108f565b6040516103fe91906122ac565b60405180910390f35b61040f6110b3565b60405161041c9190611fb0565b60405180910390f35b61042d611151565b60405161043a91906123c2565b60405180910390f35b61044b611178565b6040516104589190611fb0565b60405180910390f35b61046961117e565b60405161047691906123c2565b60405180910390f35b61049960048036038101906104949190612388565b6111a6565b005b6104a3611299565b6040516104b091906123c2565b60405180910390f35b6104d360048036038101906104ce9190612388565b6112a0565b005b6104dd61134c565b6040516104ea919061236f565b60405180910390f35b61050d60048036038101906105089190612405565b61135e565b005b602481565b61051c6113b9565b5f82148061052957505f81145b15610560576040517f07cc321c00000000000000000000000000000000000000000000000000000000815260040160405180910390fd5b8082101561059a576040517f07cc321c00000000000000000000000000000000000000000000000000000000815260040160405180910390fd5b6005548210156105d6576040517f07cc321c00000000000000000000000000000000000000000000000000000000815260040160405180910390fd5b600654811015610612576040517f07cc321c00000000000000000000000000000000000000000000000000000000815260040160405180910390fd5b81600581905550806006819055507f31f6589b7ed64ef274aa57030a506aa0b3e96b9c8c313fc8407f7253ab832d578282604051610651929190612430565b60405180910390a15050565b610665611440565b60045f9054906101000a900473ffffffffffffffffffffffffffffffffffffffff1673ffffffffffffffffffffffffffffffffffffffff163373ffffffffffffffffffffffffffffffffffffffff16146106eb576040517fc64891a500000000000000000000000000000000000000000000000000000000815260040160405180910390fd5b5f73ffffffffffffffffffffffffffffffffffffffff168673ffffffffffffffffffffffffffffffffffffffff1603610750576040517f26a0985100000000000000000000000000000000000000000000000000000000815260040160405180910390fd5b8342111561078a576040517f203d82d800000000000000000000000000000000000000000000000000000000815260040160405180910390fd5b5f60095f8873ffffffffffffffffffffffffffffffffffffffff1673ffffffffffffffffffffffffffffffffffffffff1681526020019081526020015f205490505f7ffe96be803146e49f058a1d277bfc85c2c3b615f92fb3676967ba02777d6d69ef8888848930466040516020016108099796959493929190612466565b6040516020818303038152906040528051906020012090505f61082b82611484565b90505f61083a828888886114b7565b90508973ffffffffffffffffffffffffffffffffffffffff168173ffffffffffffffffffffffffffffffffffffffff16146108a1576040517f0531268800000000000000000000000000000000000000000000000000000000815260040160405180910390fd5b6001846108ae9190612500565b60095f8c73ffffffffffffffffffffffffffffffffffffffff1673ffffffffffffffffffffffffffffffffffffffff1681526020019081526020015f20819055506108f98a8a6114e5565b50505050610905611809565b505050505050565b610915611440565b60045f9054906101000a900473ffffffffffffffffffffffffffffffffffffffff1673ffffffffffffffffffffffffffffffffffffffff163373ffffffffffffffffffffffffffffffffffffffff161461099b576040517fc64891a500000000000000000000000000000000000000000000000000000000815260040160405180910390fd5b5f73ffffffffffffffffffffffffffffffffffffffff168473ffffffffffffffffffffffffffffffffffffffff1603610a00576040517f26a0985100000000000000000000000000000000000000000000000000000000815260040160405180910390fd5b5f610a0c858585611813565b90508160200135421115610a4c576040517f203d82d800000000000000000000000000000000000000000000000000000000815260040160405180910390fd5b600181610a599190612500565b60095f8773ffffffffffffffffffffffffffffffffffffffff1673ffffffffffffffffffffffffffffffffffffffff1681526020019081526020015f20819055507f000000000000000000000000000000000000000000000000000000000000000073ffffffffffffffffffffffffffffffffffffffff1663d505accf8630855f01358660200135876040016020810190610af49190612533565b886060013589608001356040518863ffffffff1660e01b8152600401610b20979695949392919061256d565b5f604051808303815f87803b158015610b37575f5ffd5b505af1158015610b49573d5f5f3e3d5ffd5b50505050610b5785856114e5565b50610b60611809565b50505050565b610b6e611440565b610b7781611947565b5f610b84826006546119cf565b9050600754811115610bc2576040517f4242e02600000000000000000000000000000000000000000000000000000000815260040160405180910390fd5b5f7f000000000000000000000000000000000000000000000000000000000000000073ffffffffffffffffffffffffffffffffffffffff166370a08231306040518263ffffffff1660e01b8152600401610c1c91906123c2565b602060405180830381865afa158015610c37573d5f5f3e3d5ffd5b505050506040513d601f19601f82011682018060405250810190610c5b91906125ee565b905080821115610c97576040517f118d58ad00000000000000000000000000000000000000000000000000000000815260040160405180910390fd5b610ce43330857f000000000000000000000000000000000000000000000000000000000000000073ffffffffffffffffffffffffffffffffffffffff16611a08909392919063ffffffff16565b8160075f828254610cf59190612619565b925050819055507f9bad0e97d3585f249d2acb0ef53296e26065d5a452a0ea257f93af30d6be77d5600754604051610d2d9190611fb0565b60405180910390a1610d8033837f000000000000000000000000000000000000000000000000000000000000000073ffffffffffffffffffffffffffffffffffffffff16611a8a9092919063ffffffff16565b3373ffffffffffffffffffffffffffffffffffffffff167f1bd71db33a74837e0e44ae13e4c24fbf788ecdecd23b39f8927d8ae0a3c0beb68484604051610dc8929190612430565b60405180910390a25050610dda611809565b50565b7f000000000000000000000000000000000000000000000000000000000000000081565b60606040518060600160405280603a8152602001612843603a9139905090565b5f600754610e2d6110b3565b1015905090565b5f5f610e3e6110b3565b90505f6007549050808211610e53575f610e60565b8082610e5f9190612619565b5b9250505090565b60065481565b670de0b6b3a764000081565b610e816113b9565b5f73ffffffffffffffffffffffffffffffffffffffff168173ffffffffffffffffffffffffffffffffffffffff1603610ee6576040517f07cc321c00000000000000000000000000000000000000000000000000000000815260040160405180910390fd5b8060045f6101000a81548173ffffffffffffffffffffffffffffffffffffffff021916908373ffffffffffffffffffffffffffffffffffffffff1602179055508073ffffffffffffffffffffffffffffffffffffffff167fb7041340e0c2a075059bf0488a71c767724be15dae8e737f8460007325e8d85760405160405180910390a250565b610f746113b9565b610f7d5f611b09565b565b5f610f88611b39565b90508073ffffffffffffffffffffffffffffffffffffffff16610fa961117e565b73ffffffffffffffffffffffffffffffffffffffff161461100157806040517f118cdaa7000000000000000000000000000000000000000000000000000000008152600401610ff891906123c2565b60405180910390fd5b61100a81611b09565b50565b60035f9054906101000a900473ffffffffffffffffffffffffffffffffffffffff1681565b60055481565b6009602052805f5260405f205f915090505481565b60045f9054906101000a900473ffffffffffffffffffffffffffffffffffffffff1681565b61107a611440565b61108433826114e5565b61108c611809565b50565b7f000000000000000000000000000000000000000000000000000000000000000081565b5f7f000000000000000000000000000000000000000000000000000000000000000073ffffffffffffffffffffffffffffffffffffffff166370a08231306040518263ffffffff1660e01b815260040161110d91906123c2565b602060405180830381865afa158015611128573d5f5f3e3d5ffd5b505050506040513d601f19601f8201168201806040525081019061114c91906125ee565b905090565b5f5f5f9054906101000a900473ffffffffffffffffffffffffffffffffffffffff16905090565b60075481565b5f60015f9054906101000a900473ffffffffffffffffffffffffffffffffffffffff16905090565b6111ae6113b9565b5f73ffffffffffffffffffffffffffffffffffffffff168173ffffffffffffffffffffffffffffffffffffffff1603611213576040517f07cc321c00000000000000000000000000000000000000000000000000000000815260040160405180910390fd5b8060035f6101000a81548173ffffffffffffffffffffffffffffffffffffffff021916908373ffffffffffffffffffffffffffffffffffffffff1602179055508073ffffffffffffffffffffffffffffffffffffffff167f3c864541ef71378c6229510ed90f376565ee42d9c5e0904a984a9e863e6db44f60405160405180910390a250565b5f30905090565b6112a86113b9565b8060015f6101000a81548173ffffffffffffffffffffffffffffffffffffffff021916908373ffffffffffffffffffffffffffffffffffffffff1602179055508073ffffffffffffffffffffffffffffffffffffffff16611307611151565b73ffffffffffffffffffffffffffffffffffffffff167f38d16b8cac22d99fc7c124b9cd0de2d3fa1faef420bfe791d8c362d765e2270060405160405180910390a350565b60085f9054906101000a900460ff1681565b6113666113b9565b8060085f6101000a81548160ff0219169083151502179055507f29f588e2fe165433647ccbcd280f8c2d553643b5492a88904dd94f2a8f0e7404816040516113ae919061236f565b60405180910390a150565b6113c1611b39565b73ffffffffffffffffffffffffffffffffffffffff166113df611151565b73ffffffffffffffffffffffffffffffffffffffff161461143e57611402611b39565b6040517f118cdaa700000000000000000000000000000000000000000000000000000000815260040161143591906123c2565b60405180910390fd5b565b600280540361147b576040517f3ee5aeb500000000000000000000000000000000000000000000000000000000815260040160405180910390fd5b60028081905550565b5f7f19457468657265756d205369676e6564204d6573736167653a0a3332000000005f5281601c52603c5f209050919050565b5f5f5f5f6114c788888888611b40565b9250925092506114d78282611c27565b829350505050949350505050565b60085f9054906101000a900460ff161561152b576040517f8a7eeb1300000000000000000000000000000000000000000000000000000000815260040160405180910390fd5b61153481611947565b5f7f000000000000000000000000000000000000000000000000000000000000000073ffffffffffffffffffffffffffffffffffffffff166370a08231306040518263ffffffff1660e01b815260040161158e91906123c2565b602060405180830381865afa1580156115a9573d5f5f3e3d5ffd5b505050506040513d601f19601f820116820180604052508101906115cd91906125ee565b905080821115611609576040517fb77dc02500000000000000000000000000000000000000000000000000000000815260040160405180910390fd5b5f61161683600554611d89565b90505f611625846006546119cf565b90505f818311611635575f611642565b81836116419190612619565b5b90505f8211156116eb576116998630847f000000000000000000000000000000000000000000000000000000000000000073ffffffffffffffffffffffffffffffffffffffff16611a08909392919063ffffffff16565b8160075f8282546116aa9190612500565b925050819055507f9bad0e97d3585f249d2acb0ef53296e26065d5a452a0ea257f93af30d6be77d56007546040516116e29190611fb0565b60405180910390a15b5f811115611762576117618660035f9054906101000a900473ffffffffffffffffffffffffffffffffffffffff16837f000000000000000000000000000000000000000000000000000000000000000073ffffffffffffffffffffffffffffffffffffffff16611a08909392919063ffffffff16565b5b6117ad86867f000000000000000000000000000000000000000000000000000000000000000073ffffffffffffffffffffffffffffffffffffffff16611a8a9092919063ffffffff16565b8573ffffffffffffffffffffffffffffffffffffffff167f27330bd7589580547b6437e08f9c60653de63691d2d2b2c13bff9ee67da2a68d868585856040516117f9949392919061264c565b60405180910390a2505050505050565b6001600281905550565b5f815f0135421115611851576040517f203d82d800000000000000000000000000000000000000000000000000000000815260040160405180910390fd5b60095f8573ffffffffffffffffffffffffffffffffffffffff1673ffffffffffffffffffffffffffffffffffffffff1681526020019081526020015f205490505f6118a1858584865f0135611dde565b90505f6118ad82611484565b90505f6118d6828660200160208101906118c79190612533565b876040013588606001356114b7565b90508673ffffffffffffffffffffffffffffffffffffffff168173ffffffffffffffffffffffffffffffffffffffff161461193d576040517f0531268800000000000000000000000000000000000000000000000000000000815260040160405180910390fd5b5050509392505050565b5f8103611980576040517f2c5211c600000000000000000000000000000000000000000000000000000000815260040160405180910390fd5b5f670de0b6b3a76400008261199591906126bc565b146119cc576040517f2c5211c600000000000000000000000000000000000000000000000000000000815260040160405180910390fd5b50565b5f5f670de0b6b3a764000060246119e691906126ec565b90508083856119f591906126ec565b6119ff919061272d565b91505092915050565b611a84848573ffffffffffffffffffffffffffffffffffffffff166323b872dd868686604051602401611a3d9392919061275d565b604051602081830303815290604052915060e01b6020820180517bffffffffffffffffffffffffffffffffffffffffffffffffffffffff8381831617835250505050611e3c565b50505050565b611b04838473ffffffffffffffffffffffffffffffffffffffff1663a9059cbb8585604051602401611abd929190612792565b604051602081830303815290604052915060e01b6020820180517bffffffffffffffffffffffffffffffffffffffffffffffffffffffff8381831617835250505050611e3c565b505050565b60015f6101000a81549073ffffffffffffffffffffffffffffffffffffffff0219169055611b3681611ed7565b50565b5f33905090565b5f5f5f7f7fffffffffffffffffffffffffffffff5d576e7357a4501ddfe92f46681b20a0845f1c1115611b7c575f600385925092509250611c1d565b5f6001888888886040515f8152602001604052604051611b9f94939291906127b9565b6020604051602081039080840390855afa158015611bbf573d5f5f3e3d5ffd5b5050506020604051035190505f73ffffffffffffffffffffffffffffffffffffffff168173ffffffffffffffffffffffffffffffffffffffff1603611c10575f60015f5f1b93509350935050611c1d565b805f5f5f1b935093509350505b9450945094915050565b5f6003811115611c3a57611c396127fc565b5b826003811115611c4d57611c4c6127fc565b5b0315611d855760016003811115611c6757611c666127fc565b5b826003811115611c7a57611c796127fc565b5b03611cb1576040517ff645eedf00000000000000000000000000000000000000000000000000000000815260040160405180910390fd5b60026003811115611cc557611cc46127fc565b5b826003811115611cd857611cd76127fc565b5b03611d1c57805f1c6040517ffce698f7000000000000000000000000000000000000000000000000000000008152600401611d139190611fb0565b60405180910390fd5b600380811115611d2f57611d2e6127fc565b5b826003811115611d4257611d416127fc565b5b03611d8457806040517fd78bce0c000000000000000000000000000000000000000000000000000000008152600401611d7b9190612829565b60405180910390fd5b5b5050565b5f5f670de0b6b3a76400006024611da091906126ec565b90505f8385611daf91906126ec565b90508160018383611dc09190612500565b611dca9190612619565b611dd4919061272d565b9250505092915050565b5f7ffe96be803146e49f058a1d277bfc85c2c3b615f92fb3676967ba02777d6d69ef858585853046604051602001611e1c9796959493929190612466565b604051602081830303815290604052805190602001209050949350505050565b5f5f60205f8451602086015f885af180611e5b576040513d5f823e3d81fd5b3d92505f519150505f8214611e74576001811415611e8f565b5f8473ffffffffffffffffffffffffffffffffffffffff163b145b15611ed157836040517f5274afe7000000000000000000000000000000000000000000000000000000008152600401611ec891906123c2565b60405180910390fd5b50505050565b5f5f5f9054906101000a900473ffffffffffffffffffffffffffffffffffffffff169050815f5f6101000a81548173ffffffffffffffffffffffffffffffffffffffff021916908373ffffffffffffffffffffffffffffffffffffffff1602179055508173ffffffffffffffffffffffffffffffffffffffff168173ffffffffffffffffffffffffffffffffffffffff167f8be0079c531659141344cd1fd0a4f28419497f9722a3daafe3b4186f6b6457e060405160405180910390a35050565b5f819050919050565b611faa81611f98565b82525050565b5f602082019050611fc35f830184611fa1565b92915050565b5f5ffd5b611fd681611f98565b8114611fe0575f5ffd5b50565b5f81359050611ff181611fcd565b92915050565b5f5f6040838503121561200d5761200c611fc9565b5b5f61201a85828601611fe3565b925050602061202b85828601611fe3565b9150509250929050565b5f73ffffffffffffffffffffffffffffffffffffffff82169050919050565b5f61205e82612035565b9050919050565b61206e81612054565b8114612078575f5ffd5b50565b5f8135905061208981612065565b92915050565b5f60ff82169050919050565b6120a48161208f565b81146120ae575f5ffd5b50565b5f813590506120bf8161209b565b92915050565b5f819050919050565b6120d7816120c5565b81146120e1575f5ffd5b50565b5f813590506120f2816120ce565b92915050565b5f5f5f5f5f5f60c0878903121561211257612111611fc9565b5b5f61211f89828a0161207b565b965050602061213089828a01611fe3565b955050604061214189828a01611fe3565b945050606061215289828a016120b1565b935050608061216389828a016120e4565b92505060a061217489828a016120e4565b9150509295509295509295565b5f5ffd5b5f6080828403121561219a57612199612181565b5b81905092915050565b5f60a082840312156121b8576121b7612181565b5b81905092915050565b5f5f5f5f61016085870312156121da576121d9611fc9565b5b5f6121e78782880161207b565b94505060206121f887828801611fe3565b935050604061220987828801612185565b92505060c061221a878288016121a3565b91505092959194509250565b5f6020828403121561223b5761223a611fc9565b5b5f61224884828501611fe3565b91505092915050565b5f819050919050565b5f61227461226f61226a84612035565b612251565b612035565b9050919050565b5f6122858261225a565b9050919050565b5f6122968261227b565b9050919050565b6122a68161228c565b82525050565b5f6020820190506122bf5f83018461229d565b92915050565b5f81519050919050565b5f82825260208201905092915050565b8281835e5f83830152505050565b5f601f19601f8301169050919050565b5f612307826122c5565b61231181856122cf565b93506123218185602086016122df565b61232a816122ed565b840191505092915050565b5f6020820190508181035f83015261234d81846122fd565b905092915050565b5f8115159050919050565b61236981612355565b82525050565b5f6020820190506123825f830184612360565b92915050565b5f6020828403121561239d5761239c611fc9565b5b5f6123aa8482850161207b565b91505092915050565b6123bc81612054565b82525050565b5f6020820190506123d55f8301846123b3565b92915050565b6123e481612355565b81146123ee575f5ffd5b50565b5f813590506123ff816123db565b92915050565b5f6020828403121561241a57612419611fc9565b5b5f612427848285016123f1565b91505092915050565b5f6040820190506124435f830185611fa1565b6124506020830184611fa1565b9392505050565b612460816120c5565b82525050565b5f60e0820190506124795f83018a612457565b61248660208301896123b3565b6124936040830188611fa1565b6124a06060830187611fa1565b6124ad6080830186611fa1565b6124ba60a08301856123b3565b6124c760c0830184611fa1565b98975050505050505050565b7f4e487b71000000000000000000000000000000000000000000000000000000005f52601160045260245ffd5b5f61250a82611f98565b915061251583611f98565b925082820190508082111561252d5761252c6124d3565b5b92915050565b5f6020828403121561254857612547611fc9565b5b5f612555848285016120b1565b91505092915050565b6125678161208f565b82525050565b5f60e0820190506125805f83018a6123b3565b61258d60208301896123b3565b61259a6040830188611fa1565b6125a76060830187611fa1565b6125b4608083018661255e565b6125c160a0830185612457565b6125ce60c0830184612457565b98975050505050505050565b5f815190506125e881611fcd565b92915050565b5f6020828403121561260357612602611fc9565b5b5f612610848285016125da565b91505092915050565b5f61262382611f98565b915061262e83611f98565b9250828203905081811115612646576126456124d3565b5b92915050565b5f60808201905061265f5f830187611fa1565b61266c6020830186611fa1565b6126796040830185611fa1565b6126866060830184611fa1565b95945050505050565b7f4e487b71000000000000000000000000000000000000000000000000000000005f52601260045260245ffd5b5f6126c682611f98565b91506126d183611f98565b9250826126e1576126e061268f565b5b828206905092915050565b5f6126f682611f98565b915061270183611f98565b925082820261270f81611f98565b91508282048414831517612726576127256124d3565b5b5092915050565b5f61273782611f98565b915061274283611f98565b9250826127525761275161268f565b5b828204905092915050565b5f6060820190506127705f8301866123b3565b61277d60208301856123b3565b61278a6040830184611fa1565b949350505050565b5f6040820190506127a55f8301856123b3565b6127b26020830184611fa1565b9392505050565b5f6080820190506127cc5f830187612457565b6127d9602083018661255e565b6127e66040830185612457565b6127f36060830184612457565b95945050505050565b7f4e487b71000000000000000000000000000000000000000000000000000000005f52602160045260245ffd5b5f60208201905061283c5f830184612457565b9291505056fe5641554c545f4c494142494c4954595f454e41424c45445f323032365f30315f33315f50415443485f30355f5045524d49545f53545255435453a2646970667358221220fb0ac12958f36d0b1c26064667194d4e12d6c723e925ab77d7d50295e7b1533864736f6c634300081c0033",
  "linkReferences": {},
  "deployedLinkReferences": {},
  "immutableReferences": {
    "9345": [
      {
        "length": 32,
        "start": 3231
      },
      {
        "length": 32,
        "start": 3551
      },
      {
        "length": 32,
        "start": 5431
      },
      {
        "length": 32,
        "start": 5993
      }
    ],
    "9348": [
      {
        "length": 32,
        "start": 2716
      },
      {
        "length": 32,
        "start": 3013
      },
      {
        "length": 32,
        "start": 3388
      },
      {
        "length": 32,
        "start": 4241
      },
      {
        "length": 32,
        "start": 4278
      },
      {
        "length": 32,
        "start": 5716
      },
      {
        "length": 32,
        "start": 5916
      }
    ]
  },
  "inputSourceName": "project/contracts/BlockSwap.sol",
  "buildInfoId": "solc-0_8_28-7a8c83f6d99e71a7fb618fdfd4e88262dc704d78"
}